:020000040800F2
:1000000000000120910C0008AD0B0008AF0B0008A8
:10001000B10B0008B30B0008B50B0008000000008E
:10002000000000000000000000000000B70B000806
:10003000B90B000800000000BB0B0008BD0B000856
:10004000E10C0008E10C0008E10C0008E10C0008DC
:10005000E10C0008E10C0008E10C0008E10C0008CC
:10006000E10C0008E10C0008E10C0008E10C0008BC
:10007000E10C0008E10C0008E10C0008E10C0008AC
:10008000E10C0008E10C0008E10C00080000000091
:10009000000000000000000000000000E10C00086B
:1000A000E10C0008E10C0008E10C0008E10C00087C
:1000B000E10C0008E10C0008E10C0008E10C00086C
:1000C000E10C0008E10C0008E10C0008E10C00085C
:1000D000E10C0008E10C0008E10C00080000000041
:1000E000E10C0008E10C0008E10C00080000000031
:1000F000000000000000000000000000E10C00080B
:1001000000000000E10C0008E10C0008E10C000810
:1001100000000000000000000000000000000000DF
:10012000E10C0008E10C0008E10C0008E10C0008FB
:10013000E10C0008000000000000000000000000CA
:10014000000000000000000000000000C10B0008DB
:10015000E10C0008E10C0008E10C0008E10C0008CB
:10016000E10C0008E10C00080000000000000000A5
:10017000000000000000000000000000000000007F
:1001800000000000E10C000800000000000000007A
:04019000E10C000876
:1001A00010B5054C237833B9044B13B10448AFF3B1
:1001B00000800123237010BDA0010020000000007A
:1001C000A057000808B5034B1BB103490348AFF320
:1001D000008008BD00000000A4010020A057000816
:1001E00010F8012B11F8013B012A28BF9A42F7D0E1
:1001F000D01A7047034613F8012B002AFBD1181AB6
:1002000001387047000000000000000000000000FE
:1002100001F0FF01102A2BDB10F0070F08D010F8B7
:10022000013B013A8B422DD010F0070F42B3F6D1BB
:10023000F0B441EA012141EA014122F007047FF0D4
:1002400000070023F0E80256083C85EA010586EA2B
:10025000010685FA47F5A3FA87F586FA47F6A5FA67
:1002600087F68EB9EED1F0BC01F0FF0102F0070273
:1002700032B110F8013B013A83EA010313B1F8D11E
:100280000020704701387047002D06BF35460338FF
:10029000073815F0010F07D1013015F4807F02BF38
:1002A000013015F4C03F0130F0BC0138704700BF89
:1002B00053B94AB9002908BF00281CBF4FF0FF31CD
:1002C0004FF0FF3000F088B9ADF1080C6DE904CEB5
:1002D00000F006F8DDF804E0DDE9022304B0704721
:1002E0002DE9F047089D8E4604468846002B4AD1EA
:1002F0008A42174662D9B2FA82F64EB1C6F120039D
:1003000001FA06F820FA03F3B74043EA0808B440BC
:100310004FEA174E1FFA87FCB8FBFEF1230C0EFBC9
:10032000118843EA084301FB0CF29A4209D9FB18F1
:1003300001F1FF3080F0EA809A4240F2E780023912
:100340003B449A1AA3B2B2FBFEF00EFB102243EA22
:10035000024300FB0CFC9C4509D9FB1800F1FF325D
:1003600080F0D6809C4540F2D3803B44023840EA7E
:100370000140A3EB0C0300211DB1F3400022C5E9AD
:100380000032BDE8F0878B4205D90DB1C5E9000107
:1003900000210846F5E7B3FA83F1002946D17345F9
:1003A00002D3824200F20581841A6EEB030201201F
:1003B0009046002DE5D0C5E90048E2E7002A00F0AC
:1003C0009080B2FA82F6002E40F0A4808A1A030CC4
:1003D0004FEA174E80B2BCB20121B2FBFEFC0EFB0D
:1003E0001C2243EA024304FB0CF29A4207D9FB1891
:1003F0000CF1FF3802D29A4200F2E080C4469B1A08
:10040000B3FBFEF20EFB123340EA034302FB04F49B
:100410009C4207D9FB1802F1FF3002D29C4200F245
:10042000CA8002461B1B42EA0C40A5E7C1F1200628
:100430008B4022FA06F71F430EFA01F420FA06F366
:100440002EFA06FE4FEA1749234300FA01F81FFA75
:1004500087FCBEFBF9F01C0C09FB10EE44EA0E44CD
:1004600000FB0CFEA64502FA01F209D93C1900F185
:10047000FF3A80F09C80A64540F2998002383C44C7
:10048000A4EB0E041FFA83FEB4FBF9F309FB13443B
:100490004EEA044403FB0CFCA44508D93C1903F1C3
:1004A000FF3E80F08280A4457FD9023B3C4443EA72
:1004B0000040A4EB0C04A0FB02EC64457346E1464B
:1004C00062D35FD05DB1B8EB030264EB090404FAB8
:1004D00006F622FA01F31E43CC40C5E90064002170
:1004E0004FE7B1FBF2FC010C41EA0E4180B240EA59
:1004F00001423B4638463C46B846BE462026B1FB44
:10050000F7F1A2EB080241EA0C4166E7014618E761
:1005100010462CE7C6F120022EFA02F3B740B14094
:1005200020FA02F24FEA174E0A43B3FBFEF8BCB2C0
:100530000EFB1833110C41EA034108FB04F9B040EB
:1005400089454FEA104380B23ED9791808F1FF3C43
:1005500001D289451FD8A1EB0901B1FBFEF909FBC6
:1005600004F80EFB191192B242EA0142424529D227
:10057000BA1809F1FF31C4D24245C2D2A9F1020131
:100580003A44BEE7F0459DD2BEEB02036CEB070C8C
:100590000138E14696E7A7EB09094944A8F1020CA6
:1005A000B1FBFEF909FB04F8DBE773467FE7504631
:1005B00066E70846FDE63B44023A33E7ACF1020C3D
:1005C0003B441CE749469CE7A1EB0901C446B1FB4B
:1005D000FEF909FB04F8C4E7704700BF2DE9F041BC
:1005E0008AB004460E4628220021684604F044F8EA
:1005F0003146204600F08CF81C49204604F052F8A1
:100600001B4B0090A1191B4E93F800800024054657
:1006100001F8014C3746E3B2984504D816481C212E
:1006200000F076F81AE031462846FFF7D9FD10367B
:10063000631CC0B9DFF834806E46012541460020B6
:1006400004F030F846F8040F58B101350B2DF5D100
:100650000A2007EB04146946E36898470AB0BDE82E
:10066000F081E8B2F5E71C46D5E700BFF95A00086B
:10067000285B00082C5B0008B857000800F00F0347
:1006800002099F2894BF30323732092B94BF303390
:1006900037330A704B70881C70470000054B187880
:1006A000013000F001001870034B404200F0C80018
:1006B00018447047BC010020C0010020044B0548CD
:1006C0001B78013343F3000303F0C8031844704759
:1006D000BC010020C001002040F28F13984228BFC7
:1006E0001846054B1880054B1A78054BC82101FBAD
:1006F000023300221A547047BE010020BC010020C2
:10070000C0010020014B1888704700BFBE010020C7
:1007100038B504460D462946204603F00FF8012857
:10072000F9D038BD8C4601462DE9F8431D463A23E1
:1007300001F8013B55FA8CF40646284617464FEA65
:100740001C295FFA8CF804EB1C24FFF797FF014685
:100750004846FFF793FF01464046FFF78FFF0146EB
:10076000302301F8023BE4B243703D44AF420DD167
:100770006042C0B2FFF782FF0A22034602700022E5
:1007800003F8012F981B80B2BDE8F8833878FFF793
:1007900075FF17F8013B23440146DCB2E6E7000091
:1007A0003F289DBF024B195400200120704700BF15
:1007B000000000203F289FBF034B1B5C0B700020F4
:1007C00088BF0120704700BF000000203F2803467B
:1007D0009DBF024A0020D054012070470000002035
:1007E00030B595B050220021684603F045FF084D12
:1007F00000242A19A1B210236846FFF793FF103492
:1008000001466846FFF784FF402CF2D115B030BD99
:10081000000000202DE9F04F9FB07E4BCDE9020192
:1008200000241C6026462746A34625460194A04680
:10083000A146A246DDE90201774A03F083FC431C8E
:1008400011D1764B01221A600021642205A803F021
:1008500013FFBAF1000F3ED071482121FFF758FF76
:100860001FB0BDE8F08F72282AD008DC64282AD097
:1008700065282AD061280BD04FF0010ADAE77628E4
:1008800012D077280CBF4FF001094FF0010AD1E7D1
:10089000644B186803782D2B1AD00A22002103F02C
:1008A0008BF94FF0010B06465E4B186803782D2B31
:1008B00004D00A22002103F07FF904460127B9E79A
:1008C0004FF00108B6E70125B4E701250195B1E72E
:1008D0004FF0010BAEE7019A09EB080313445B19D3
:1008E00002D151481821B9E7012B02D04F482C21E1
:1008F000B4E7B9F1000F07D0BBF1000F01D0002F12
:1009000063D14B482E21A9E7B8F1000F79D0BBF194
:10091000000F01D0002F3BD046483A219EE705AAA0
:100920005019012B29D1444903F08BFF1F344AE0B1
:1009300005AA012B02EB070004D13F4903F081FF18
:100940001F355BE03D4903F07CFF103556E0019B0D
:10095000C3B132463A4905A803F084FD0546C4B246
:10096000B0B2FFF733FF05AA03465019002BD8D1C8
:10097000344903F066FF073425E0304903F061FF96
:10098000103420E0002D3FF46BAFFFF729FF67E73D
:10099000002D3BD12C498DF81350324605A803F0A9
:1009A00061FD0DF113010546C4B2B0B2FFF702FFBD
:1009B00003460028B3D105AB9DF8132023495819ED
:1009C00003F050FD0444E1B219E0B8F1000FA3D1E7
:1009D000E5B923461E49324605A803F043FDE1B2BE
:1009E0000746C5B2B0B2FFF7DBFE034600289FD131
:1009F00005AB1849D81903F024FF0835E9B205A85A
:100A00002CE7002DA3D05BEA0707A0D012483221C3
:100A100024E700BF3C010020D557000850130020F8
:100A2000DE57000854130020005800081958000829
:100A3000465800087558000806590008265900084D
:100A4000645900087D590008E3580008FB58000865
:100A5000375900085B590008B058000882B00C4BA9
:100A6000002100911A6B42F080021A631A6B02F0A7
:100A700080020092009A01911A6B42F001021A63FF
:100A80001B6B03F001030193019B02B0704700BF91
:100A90000038024030B595B0102200210AA803F0BA
:100AA000EBFD1422002103A803F0E6FD204B0021FA
:100AB00001911A6C42F080521A641B6C1D4A03F0BB
:100AC00080530193019B0291136823F4404343F444
:100AD00000431360136803F440430293029B012414
:100AE0004FF48033CDE9084302254FF48003CDE96C
:100AF0000E531922C023CDE9102308A80423CDE901
:100B0000123300F0B1FF08B172B6FEE70F23CDE952
:100B100003354FF48053CDE906300590214603A8F4
:100B200001F07EF908B172B6FEE715B030BD00BF26
:100B3000003802400070004070B500F0F7F8FFF791
:100B4000A9FFFFF78BFF02F09FFD084D00262B78D1
:100B500003B9FEE7FFF7B2FD0446FFF7D3FD0146F8
:100B60002046FFF73BFD2E70F1E700BF5003002049
:100B700072B6FEE782B00C4B002100915A6C42F431
:100B800080425A645A6C02F480420092009A0191A9
:100B90001A6C42F080521A641B6C03F0805301936C
:100BA000019B02B0704700BF00380240FEE7FEE73D
:100BB000FEE7FEE7FEE770477047704700F0D0B8E9
:100BC000014800F0E5BB00BF600E00200120704727
:100BD00008B503F009FE162303604FF0FF3008BD8F
:100BE00008B503F001FE16230360FEE770B50D465D
:100BF00014460E46731B9C4201DC204670BDAFF3C9
:100C0000008006F8010BF5E770B50D4614460E4658
:100C1000731B9C4201DC204670BD16F8010BAFF33C
:100C20000080F5E74FF0FF3070474FF400534B6002
:100C30000020704701207047002070470B4A116860
:100C400010B5034609B90A491160106809490A4CF0
:100C50000344091B8B4206D903F0C6FD0C23036035
:100C60004FF0FF3010BD1360FCE700BF58030020B9
:100C7000A81400200000012000040000034AD2F85C
:100C8000883043F47003C2F88830704700ED00E00C
:100C9000DFF834D0FFF7F2FF0C480D490D4A00236E
:100CA00002E0D458C4500433C4188C42F9D30A4A21
:100CB0000A4C002301E013600432A242FBD303F08C
:100CC00099FDFFF739FF7047000001200000002068
:100CD000A0010020605C0008A0010020A4140020F6
:100CE000FEE7000038B50E4B1A784FF47A73B3FB69
:100CF000F2F30C4A05461068B0FBF3F000F0A8F8D8
:100D0000044658B90F2D09D8024629464FF0FF3046
:100D100000F05EF8044B20461D6038BD0120FCE762
:100D200048000020440000204C00002008B50B4B78
:100D30001A6842F400721A601A6842F480621A60FB
:100D40001A6842F480721A60032000F02FF80F2016
:100D5000FFF7C8FFFFF70EFF002008BD003C024070
:100D6000034A044B11681B780B441360704700BFA3
:100D70005C03002048000020014B1868704700BF4A
:100D80005C03002038B50446FFF7F6FF631C1CBF68
:100D9000054B1B78054618BFE418FFF7EDFF431B12
:100DA000A342FAD338BD00BF480000200749CA68F3
:100DB00022F4E0620302120403F4E063120C134312
:100DC00043F0BF6343F40033CB60704700ED00E0B5
:100DD000164B30B5DC68C4F30224C4F10703251DAB
:100DE000042B28BF0423062D4FF0FF358CBF033C96
:100DF000002405FA03F321EA0303A54022EA0502D1
:100E0000A340002843EA0203ACBF00F16040084A57
:100E10004FEA0313B8BF00F00F00DBB2AABF00F522
:100E20006140135480F8003330BD00BF00ED00E096
:100E300014ED00E0002807DB044A4109012300F01B
:100E40001F00834042F82130704700BF00E100E0FE
:100E50000138B0F1807F0BD24FF0E023054A586192
:100E6000F02182F823100020072298611A61704750
:100E70000120704700ED00E02DE9F74FDFF8809189
:100E80005D4A00230D6801249C4004EA0506AC433A
:100E900040F0A3804D68032705F003044FEA4308A0
:100EA00007FA08FC671E012F6FEA0C0C34D887681C
:100EB00007EA0C0ECF6807FA08F747EA0E078760C3
:100EC000476827EA060EC5F300179F4047EA0E075A
:100ED0004760C76807EA0C0E8F6807FA08F747EA09
:100EE0000E07022CC76019D14FEAD30A00EB8A0A19
:100EF00003F0070BDAF820704FEA8B0B4FF00F0E60
:100F00000EFA0BFE27EA0E0E0F6907FA0BF747EAF7
:100F10000E07CAF8207001E0032CDAD1076804FA42
:100F200008F407EA0C073C4315F4403F046054D032
:100F300000240194D9F8444044F48044C9F8444062
:100F4000D9F8444023F0030707F1804704F48044B4
:100F500007F59C37019403F0030C019CD7F808E0D7
:100F60004FEA8C0C0F2404FA0CF42EEA040E234CE6
:100F7000A04239D004F58064A04237D004F58064E3
:100F8000A04235D004F58064A04233D004F58064DB
:100F9000A04214BF0724042404FA0CF444EA0E040B
:100FA000BC609468F74315F4801F0CBF3C40344389
:100FB0009460D46815F4001F0CBF3C403443D460E7
:100FC000546815F4003F0CBF3C403443546014682F
:100FD000ED0354BF3C40344314600133102B7FF4C5
:100FE00051AF03B0BDE8F08F0024D5E70124D3E76B
:100FF0000224D1E70324CFE7003C01400000024077
:1010000000380240F7B5044610B390F895340568EF
:1010100003F0FF021BB980F8942402F01DFC0323A7
:10102000B5F1A04F84F8953404BF0023A371206864
:1010300001F078F8237C8DF80030251D95E80E002E
:10104000206800F0B5FF014630B1022384F89534E2
:101050000125284603B0F0BD206801F069F800289A
:10106000F3D1267904F1140301270246C1B28E425E
:1010700003F124031BD8002104F515730A46C8B2F6
:10108000864203F1240320D8237C8DF8003095E8B4
:101090000E00206801F0C8F805460028D5D10123CC
:1010A0006074206884F8953401F002FCD1E723F8DD
:1010B0000A0C43E9072203F8237C03F8241C03F8F5
:1010C000202C43F8142C0130D0E743E9072203F821
:1010D000232C03F8240C03F8202C43F8142C0131A2
:1010E000CDE710B50446006894F89434012B15D070
:1010F000012384F89434C3685B0606D5637B012B17
:1011000002BF836B43F48033836301F005F82068EA
:1011100001F0C0FB002084F8940410BD0220FCE71D
:1011200010B590F89424012A04460AD0012280F8D0
:1011300094244174006801F09DFB002084F894041D
:1011400010BD0220FCE770B501F00F0606EBC604E7
:1011500011F0800F05464FEA84044FF0240020D0A0
:1011600000FB065004F11401012429444475C2F324
:101170000A028A604A780E700B7102B14E83022B0C
:1011800004BF00234B7195F89434012B12D0012336
:10119000286885F8943401F00CF9002085F894044F
:1011A00070BD00FB065004F515710024294480F839
:1011B0005542DCE70220F3E710B5044601F00F00CA
:1011C00000EBC00311F0800F4FEA83034FF02402BD
:1011D00015D002FB004203F1140101232144537591
:1011E000087094F89434012B12D00123206884F8FD
:1011F000943401F01DF9002084F8940410BD02FB22
:10120000004203F515710023214482F85532E7E7C7
:101210000220F3E770B501F00F05242404FB05015B
:1012200004FB0504C4E998230023C4F8683284F859
:10123000553284F85452164682790068012A01F525
:10124000157108BFC4F8706201F09EF9002070BDEE
:1012500001F00F01242303FB0100D0F8680270475E
:1012600070B501F00F05242404FB050104FB0504FF
:10127000C4E908230023A36201236375257516467C
:10128000827900689A4201F1140108BF266301F0D7
:101290007BF9002070BD38B5037901F00F05AB4232
:1012A00004462BD311F0800F4FF024001DD000FB1B
:1012B000054100FB054001231431437501238B7068
:1012C0000D7094F894249A421AD0206884F89434CB
:1012D00001F07CFA2DB9A179206804F29C4201F05A
:1012E00035FB002084F8940438BD00FB01431A4606
:1012F00003F51571002382F85532DFE70120F3E78B
:101300000220F1E738B5037901F00F029342044659
:1013100029D302EBC20311F0800F4FEA83034FF091
:10132000240017D000FB024003F1140101232144E3
:10133000437500258D700A7094F89434012B14D0F5
:101340000123206884F8943401F06BFA84F89454F3
:10135000284638BD00FB024003F5157100232144E7
:1013600080F85532E5E70120F3E70220F1E701F0CC
:101370000F0303EBC3030A064FEA83034CBF03F1D9
:10138000140103F515710144006801F0A7B80000CD
:101390002DE9F04F066889B00446304601F0C4FAE2
:1013A0000390002840F05681206801F08FFA002851
:1013B00000F05081D6F808382068C3F30D23C4F834
:1013C000D43401F083FA870748BF2268206842BFFF
:1013D000536903F00203536101F078FAC00606F581
:1013E00000652DD52268936923F010039361D6F828
:1013F000208008F4F013B3F5802F08F00F0740F0B9
:101400002C8147F6F07318EA030F14D0242303FB52
:101410000747C8F30A19D7F860124A46304601F068
:10142000B5F9D7F860324B44C7F86032D7F8683264
:101430004B44C7F868322268936943F01003936104
:10144000206801F043FA010300F11A81206801F0DD
:101450003DFA42030DD5206801F044FA2746049076
:1014600006F5106B4FF0000A049B2068002B40F03B
:10147000D181206801F02AFA002813DA6B6823F082
:1014800001036B6094F8CC34012B40F06982002199
:1014900084F8CC14204600F0E6FA2268536903F081
:1014A00000435361206801F011FA07050AD5AB68C3
:1014B000D80702D5204602F03FFA2268536903F4A8
:1014C00000635361206801F001FAC10433D56B68F1
:1014D000206823F001036B60102100F059FE207991
:1014E00006F510634FF67F31039A904200F23C827A
:1014F000EB6943F00113EB61E37B002B00F05082BA
:10150000D5F8843043F00B03C5F884306B6C43F09E
:101510000B036B64D6F80038206823F4FE63C6F82A
:10152000003804F29C42A17901F010FA2268536954
:1015300003F480535361206801F0C8F9820416D582
:10154000206801F0F5F9206800F028FFE0712768B5
:1015500000F000FDE2790146384600F06DFD2046BE
:1015600002F0D7F92268536903F4005353612068ED
:1015700001F0ACF9030707D5204602F0C6F922684E
:10158000536903F008035361206801F09FF90706CF
:1015900000F11182206801F099F9C0020CD5A04633
:1015A00006F5126901272379BB4200F21D822268E9
:1015B000536903F480135361206801F087F98102B5
:1015C0002BD594F804E0234606F532614FF0010C68
:1015D000E6451DD993F87C720868012F40F01A8205
:1015E000002880F21782D4F8D42482EA1040C2077F
:1015F00000F1108283F87B72B06940F08000B06126
:101600007069000600F106826B6843F400736B603A
:101610002268536903F400135361206801F056F9FE
:10162000410007D5204602F0ABF92268536903F068
:1016300080435361206801F049F942070AD52368C5
:101640005D686B0702D5204602F09EF92268536858
:101650002B43536009B0BDE8F08FB3F5402F7FF402
:10166000EAAE082204F29C41304601F08FF82423B0
:1016700003FB0747C8F30A18D7F868324344D8E693
:10168000206801F027F906F530680490A24600278B
:10169000049B2068002B3FF4D9AE049BDB0778D570
:1016A0005FFA87FB594601F025F910F0010F8146DA
:1016B0001FD020680123C8F8083094F806C0016CD8
:1016C00000F5306303EB4713BCF1010F9A6840F05B
:1016D0008B8012F0080F07D0AF48814209D912045D
:1016E00007D54FF4004203E012F0200F5AD0202219
:1016F0009A6019F0080F21D00823C8F80830236831
:10170000A5491A6C03F5306303EB47138A429868C6
:1017100004D9010444BF4FF400409860204605926C
:1017200002F0DCF8059A9C498A4207D9A17901297F
:1017300004D1206804F29C4201F008F919F0100F5E
:101740001CBF1023C8F8083019F0020F14D07369B9
:101750001A0642BF6B6843F480636B609AF8573295
:10176000012B06D100238AF857325946204602F051
:10177000FFF80223C8F8083019F0200F1CBF2023FF
:10178000C8F8083019F4005F1CBF4FF40053C8F8C4
:101790000830049B5B080137049308F120080AF124
:1017A000240A75E7DFF8F0C1614501D9120498D425
:1017B0001A69DAF87432C2F312029B1ACAF8683254
:1017C0006FB9D4F864222AB904F29C42012101F0D5
:1017D000BDF804E0D4F860221A44C4F860225946E7
:1017E000204602F081F884E7DFF8B0C1614507D1F7
:1017F00011043FF576AF9006F1D520229A60EEE70E
:10180000002FECD1D4F86432002BE8D104F29C42D2
:101810003946DCE7049BDB0740F199805FFA8AF3E5
:101820001946059301F06FF810F0010F80461FD0A4
:101830006B6B01210AF00F0201FA02F223EA0203A4
:101840006B63CBF80810A17901290DD1D7E90723E3
:1018500013443B62BAF1000F06D1636A23B92068D2
:1018600004F29C4201F072F80599204602F045F816
:1018700018F0080F1CBF0823CBF8083018F0100F21
:101880001CBF1023CBF8083018F0400F1CBF4023BA
:10189000CBF8083018F0020F0FD05146304600F058
:1018A00077FCFB7D012B05D100230599FB752046B4
:1018B00002F062F80223CBF808302368069318F090
:1018C000800F44D0D7E909329A4240D8A3EB0208EE
:1018D000FB69984528BF9846069B03F5106308F1FD
:1018E000030803EB4A134FEA98080793079B99698B
:1018F00089B24145D7E9093227D393420BD8069BD9
:101900000AF00F00D3F834280121814022EA0102B5
:10191000C3F834281BE0A3EB0209FB69059A06987B
:10192000994528BF9946A3790093396A1FFA89F32C
:1019300000F016FE3B6A4B443B62BB6A09F10308A8
:101940004B444FEA9808BB62D0E79342D7D9049B37
:101950005B080AF1010A049324370BF1200B83E59D
:10196000204602F001F898E599601A6822F4001206
:101970001A60C3F80812D3F8002222F40012C3F848
:101980000022D3F8002242F00062C3F80022039A3A
:10199000013203922033A7E50A30544F0A31544FE5
:1019A0006B6943F4005343F02B036B612B6943F0E5
:1019B0000B032B61AEE5B36923F08003B36101270C
:1019C00004F257284FF024092379BB427FF6E2AD99
:1019D00009FB07F318F80330012B03D1F9B22046B5
:1019E000FFF7C5FC0137EFE798F83C30D9F8002045
:1019F000012B09D1002A07DA67F07F0188F83B3014
:101A0000C9B22046FFF7B3FC013708F1240809F1F9
:101A10002009C8E50CF1010C24332031D8E500BFC2
:101A2000006870B5436A120419B913438362002039
:101A300070BD846A4E1E03EB14430024B44205D3E8
:101A40003F3100EB810013434360F0E704F14005B0
:101A500000EB850501346D6803EB1543EEE7036881
:101A600000205962704770472DE9F341044640B3A6
:101A70000368DE0710D423689D075BD42368190729
:101A800000F19D8023685A0700F1BD80A369002BF7
:101A900040F0248100202CE08D4B9A6802F00C026B
:101AA000042A07D09A6802F00C02082A0BD15B685E
:101AB000590208D5864B1B689A03DCD56368002B56
:101AC000D9D1012015E06368814DB3F5803F13D172
:101AD0002B6843F480332B60FFF74EF97C4E0546AC
:101AE00033689B03C7D4FFF747F9401B6428F7D935
:101AF000032002B0BDE8F081B3F5A02F04D12B681C
:101B000043F480232B60E3E72A6822F480322A60C2
:101B10002A6822F480222A60002BDDD1FFF72CF9FD
:101B200006462B689F03A6D5FFF726F9801B64287D
:101B3000F7D9DDE7664B9A6812F00C0F07D09A6868
:101B400002F00C02082A11D15B685D020ED4604AD3
:101B50001368990702D5E368012BB2D11368216994
:101B600023F0F80343EAC103136087E7E268594BA7
:101B7000B2B101221A60FFF7FFF8554D06462B68F7
:101B80009B0707D52B68226923F0F80343EAC203B9
:101B90002B6073E7FFF7F0F8801B0228EFD9A7E767
:101BA0001A60FFF7E9F84A4E054633689F077FF54C
:101BB00065AFFFF7E1F8401B0228F6D998E76269A4
:101BC000444B82B10122C3F8802EFFF7D5F8404E76
:101BD0000546736F9B073FF555AFFFF7CDF8401BE8
:101BE0000228F6D984E7C3F8802EFFF7C5F8384EEF
:101BF0000546736F9F077FF545AFFFF7BDF8401BA4
:101C00000228F6D974E7324B1A6C12F0805228D1B0
:101C100001921A6C42F080521A641B6C03F08053DC
:101C20000193019B01272C4D2B68D8051BD5A36878
:101C3000274D012B27D12B6F43F001032B67FFF7B3
:101C40009BF8234E054641F28838336F9A0739D501
:101C5000002F3FF41BAF1E4A136C23F08053136414
:101C600014E70027DFE72B6843F480732B60FFF74E
:101C700083F806462B68D905D9D4FFF77DF8801B79
:101C80000228F7D934E7052B04D12B6F43F0040366
:101C90002B67D0E72A6F22F001022A672A6F22F011
:101CA00004022A67002BCAD1FFF766F841F2883890
:101CB00006462B6F9B07CBD5FFF75EF8801B404590
:101CC000F7D915E7FFF758F8401B4045BDD90FE796
:101CD000003802400000474200700040374DAA68BB
:101CE00002F00C02082A3ED0022B354B4FF00002C6
:101CF0001A662BD1FFF740F806462B6899011FD4CE
:101D0000D4E907321343626A43EA8213E26A43EA80
:101D10000263A26A5208013A43EA02436B60284B0D
:101D2000264D01221A66FFF727F804462B689A0110
:101D30003FF5B0AEFFF720F8001B0228F6D9D7E632
:101D4000FFF71AF8801B0228D7D9D1E6FFF714F85D
:101D500004462B689B017FF59DAEFFF70DF8001B35
:101D60000228F6D9C4E6012B3FF4ABAE6B68E269FA
:101D700003F4800191427FF4A4AE216A03F03F0294
:101D80008A427FF49EAE616A47F6C0721A40B2EB97
:101D9000811F7FF496AEA26A520803F44031013AE3
:101DA000B1EB024F7FF48DAEE26A03F07063B3EBE8
:101DB000026F14BF012000209BE600BF00380240E4
:101DC00000004742134908B58B6803F00C03042B4D
:101DD0001CD0082B1CD14A684B68496813F4800357
:101DE00014BF0D480D48C1F3881118BF002302F03D
:101DF0003F02A1FB0001FEF75BFA064B5B68C3F3F1
:101E0000014301335B00B0FBF3F008BD0248FCE77F
:101E10000248FAE70038024040787D010024F400CF
:101E20002DE9F0410D46044610B90120BDE8F081CE
:101E3000434B1A6802F007028A4228D321688F07B1
:101E40002DD4C80740D43E4B1A6802F00702AA42BC
:101E500065D8226851076BD4130707D5394A216921
:101E6000936823F4604343EAC1039360FFF7AAFF3A
:101E7000344B354A9B68C3F30313D35CD840334BD0
:101E80001860334B1868FEF72DFF0020CEE7CAB26A
:101E90001A701B6803F007038B42C6D1CEE7294BAB
:101EA00011F0040F1EBF9A6842F4E0529A600E07C8
:101EB00042BF9A6842F460429A609A68A06822F031
:101EC000F00202439A60BCE762681E4B012A1CD1F3
:101ED0001B6813F4003FA8D01A4EB36823F0030325
:101EE0001343B360FEF748FF41F288380746B368F2
:101EF000626803F00C03B3EB820FA4D0FEF73CFF43
:101F0000C01B4045F3D9032090E7911E01291B68AF
:101F100002D813F0007FDEE713F0020FDBE7EAB22E
:101F20001A701B6803F00703AB427FF47EAF90E7A3
:101F30000449E0688B6823F4E05303438B608BE72C
:101F4000003C0240003802403C5B00084400002096
:101F50004C000020014B1868704700BF440000206F
:101F600082B0002302460193019B01330193019B40
:101F7000B3F1706F1AD81369002BF5DA0A230193B5
:101F8000019B83B9136943F001031361019B013382
:101F90000193019BB3F1706F08D8106910F0010034
:101FA000F4D102B07047019B013BE8E70320F8E75A
:101FB00084B038B505AD85E80E009DF81930012BC9
:101FC000044627D1836B23F480338363C36823F4EF
:101FD000840323F04003C360C36823F44013C36049
:101FE0009DF82030012B02BFC36843F48013C36007
:101FF000FFF7B6FF9DF81630012B07D1A36843F019
:102000000603A360A36843F02003A360BDE8384043
:1020100004B07047C36843F04003C360FFF7A0FFFC
:102020009DF81D3023B9A36B43F48033A363E1E72C
:10203000A36B23F48033F9E7022A4AD1274B284ABD
:102040000B44934239D9274B274A0B44934236D944
:10205000264AA1F57403A3F51053934231D9244ABB
:10206000A1F18373A3F5E74393422CD3214B224A7A
:102070000B44934229D9214B214A0B44934226D346
:10208000204B214A0B44934223D3204AA1F1B7733A
:10209000A3F5585393421ED31D4B1E4A0B44934243
:1020A0002CBF06230723C26822F47052C260C268A4
:1020B00042EA8323C360002070470F23F3E70E2317
:1020C000F1E70D23EFE70C23EDE70B23EBE70A2302
:1020D000E9E70923E7E70823E5E700BF405327FFC7
:1020E000FF340C00401E1BFF3F420F007F4F1200C9
:1020F00020D6130060B6E5FE5FE3160000D3CEFEE7
:1021000040771B00C05BB3FEC091210020753800F2
:10211000E05459FEE09C4100836843F00103836072
:1021200000207047836823F001038360002070471C
:1021300038B5C368012923F0C04305460C46C36087
:1021400014D1C36843F00053C36000240A20FEF793
:1021500019FE6B69D90704F10A0402D4C82CF5D121
:10216000C824A4F1C8035842584138BD71B9C368A6
:1021700043F08043C3600A20FEF704FE6B69DA0770
:1021800004F10A04EDD5C82CF5D1E9E70120ECE70C
:1021900082B0002302460193019B01330193019B0E
:1021A000B3F1706F15D81369002BF5DA890100239C
:1021B00041F0200101931161019B01330193019BC7
:1021C000B3F1706F05D8106910F02000F4D102B09F
:1021D00070470320FBE782B0002302460193019B76
:1021E00001330193019BB3F1706F13D81369002B76
:1021F000F5DA0023019310231361019B013301934E
:10220000019BB3F1706F05D8106910F01000F4D184
:1022100002B070470320FBE7D0F800381943C0F83C
:10222000001800207047000084B02DE9F8430446F0
:1022300009A880E80E0000239DF824609DF82E5028
:10224000194603F1400204EB820201330F2B516067
:10225000F7D104F50067002D6CD17B6843F00203D1
:102260007B60A36B43F40013A363A36B23F40023ED
:10227000A363A36B23F48023A3630023C4F8003E6D
:102280009DF82930012B5FD19DF82710002959D1E5
:102290002046FFF7C1FF10212046FFF779FF0146D6
:1022A0002046FFF798FF0843C0B2002300383B6187
:1022B00018BF01207B6104F51062FB6119464FF0E5
:1022C000904C4FF0006E4FF67F389E423ED8002271
:1022D00004F5306311464FF0904C4FF0006E4FF60E
:1022E0007F38964245D83B6923F480733B610023D5
:1022F000A3616FF0804363619DF826301BB9A36929
:1023000043F01003A361A269234B1343A3619DF81B
:102310002A301BB1A36943F00803A361012D01BF5B
:10232000A36943F0804343F00403A361BDE8F8438D
:1023300004B07047A36B23F40013A363A36B43F4AF
:10234000002399E71946A3E70321A1E7D2F80090FB
:10235000B9F1000F0BDA3BB9C2F800E011610133AB
:10236000C2F808802032B0E7C2F800C0F6E711607A
:10237000F4E7D3F80090B9F1000F0BDA3AB9C3F8DB
:1023800000E019610132C3F808802033A9E7C3F8DF
:1023900000C0F6E71960F4E700383C80D0F8083850
:1023A00013F0060004D013F0020F14BF02200F2018
:1023B000704730B50C78012204F00F05AA404D7823
:1023C000012D00F5006300EB441019D1DD692A43AB
:1023D000DA61D0F800391A0410D48A68D0F80059AC
:1023E000C2F30A030A792B4343EA824343EA845344
:1023F00043F0805343F40043C0F80039002030BD5F
:10240000DC6944EA0242DA61D0F8003B1B04F5D4EF
:102410008B68D0F8002BC3F30A0313430A7943EA0D
:10242000824343F0805343F40043C0F8003BE5E7A8
:1024300010B50A784978012900EB421300F50060D5
:1024400002F00F0222D1D3F8001900290BDAD3F8D9
:10245000001941F00061C3F80019D3F8001941F0E8
:102460008041C3F80019C46B012101FA02F224EA89
:102470000204C463C16921EA0202C261D3F80019EF
:10248000144A0A40C3F80029002010BDD3F8001BED
:1024900000290BDAD3F8001B41F00061C3F8001BE0
:1024A000D3F8001B41F08041C3F8001BC46B4FF40C
:1024B000803101FA02F224EA0204C463C16921EA0C
:1024C0000202C261D3F8001B034A0A40C3F8002B82
:1024D000DAE700BF007833EC0078F3EF82B0002336
:1024E0004A7801930B78012A4FEA43131ED100F575
:1024F0001060C118C258002A02DB002002B07047E9
:10250000C25842F00062C250C25842F08042C250EB
:1025100042F21072019B01330193019B934201D956
:102520000120EBE70B68002BF4DBE6E700F53060F9
:10253000C118C258002AE0DAC25842F00062C25004
:10254000C25842F08042C25042F21072019B0133E5
:102550000193019B9342E3D80B68002BF6DBCCE799
:1025600010B59DF8084044B9033301329B0800EBD5
:10257000023001EB8303994201D1002010BD51F8D4
:10258000042B0260F7E700002DE9F3414B780C695A
:102590000F79DFF8F0E1DFF8F08116460A78012BB9
:1025A00000EB421540F0978005F5106CDCF8103018
:1025B00074BB03EA0E03CCF81030DCF8103043F49F
:1025C0000023CCF81030DCF8103003EA0803012EA9
:1025D000CCF8103057D1CB690BB1CCF81430012FA7
:1025E0000CD1D0F8083813F4807FD5F800390CBF2F
:1025F00043F0005343F08053C5F80039D5F8003953
:1026000043F00443C5F80039002002B0BDE8F08172
:1026100003EA0803CCF81030DCF8103003EA0E03AC
:10262000CCF810308B687AB9A34238BF0B61DCF864
:10263000103043F40023CCF810300B69DCF8104064
:10264000C3F312032343C2E71C44013CB4FBF3F47D
:102650004B4BDCF810E01FFA84F803EAC44444EA68
:102660000E04012FCCF81040E7D1DCF8103023F035
:10267000C043CCF81030DCF810404FEA487303F048
:10268000C0432343D7E7D5F80039012F43F0044373
:10269000C5F800390B690BD0002BB5D0D0F8341831
:1026A00002F00F02012393400B43C0F83438ABE72C
:1026B000D0F8084814F4807FD5F800490CBF44F0E6
:1026C000005444F08054C5F800490096C9689BB294
:1026D000FFF746FF98E7D5F8103B03EA0803C5F873
:1026E000103BD5F8103B03EA0E0305F5306CCCF82F
:1026F00010308B685ABB04B10B610B62DCF8102000
:10270000C3F312031343CCF81030DCF8103043F459
:102710000023012ECCF8103003D1CB680BB1CCF8DC
:102720001430012F0CD1D0F8083813F4807FD5F87D
:10273000003B0CBF43F0005343F08053C5F8003B0F
:10274000D5F8003B43F00443C5F8003B5CE7002CA0
:10275000D4D01C440A4ADCF810E0013CB4FBF3F48A
:10276000A4B202EAC442634342EA0E020B62CCF80E
:102770001020DCF81020C3F312031343C9E700BF95
:102780000000F81FFFFF07E00000F8FF034670B5E8
:102790000020940803F5805502F00302A04210D3F4
:1027A00001EB840062B103F580531C680023D9005B
:1027B00024FA01F1C154013399B28A42F7D110448D
:1027C00070BD2E6841F820600130E7E74A780B7849
:1027D000012A00EB431012D1D0F80029002A06DBB1
:1027E0002BB1D0F8003923F08043C0F80039D0F87D
:1027F000003943F40013C0F8003900207047D0F8C6
:10280000002B002A06DB2BB1D0F8003B23F08043DD
:10281000C0F8003BD0F8003B43F40013C0F8003B85
:10282000EBE70B784A7800EB43100B79012AA3F110
:102830000203DBB20FD1D0F80029012B22F40012E1
:10284000C0F8002905D8D0F8003943F08053C0F80B
:10285000003900207047D0F8002B22F40012012B21
:10286000C0F8002B9EBFD0F8003B43F08053C0F867
:10287000003BEEE7D0F8003823F4FE63C0F80038E0
:10288000D0F80038090101F4FE611943C0F80018BE
:1028900000207047D0F8003E23F00303C0F8003E4C
:1028A000D0F8043823F00203C0F804380020704741
:1028B000D0F8003E23F00303C0F8003ED0F80438FF
:1028C00043F00203C0F80438002070474269806971
:1028D00010407047D0F8183800F50060C069184003
:1028E000000C7047D0F8183800F50060C069184037
:1028F00080B2704700EB411100F50060D1F8082B61
:10290000406910407047D0F81028D0F8343800EBF8
:10291000411001F00F01CB4000F51060DB01806831
:10292000DBB2134318407047406900F00100704764
:10293000D0F800396FF30A03C0F80039D0F8043832
:1029400043F48073C0F804380020704730B5056C3C
:10295000104CA54200F5306303D9D0F8004B002C91
:1029600016DB00241C611C6944F400241C611C69F2
:1029700044F018041C611C69012944F0C0441C6126
:1029800001BF5A61D0F8003B43F08023C0F8003B00
:10299000002030BD0A30544FD0F8D43200EB830011
:1029A00010B5D0F8C0428CB1D0F8C4321BB194F845
:1029B0000002FF2801D1002010BD9B6894F801227D
:1029C00021469847FF2384F80032F4E70320F3E719
:1029D0000A23038000487047CC00002070B5822194
:1029E00006460F4800F085FB012105460C4800F023
:1029F00080FB812104460A4800F07BFB0DB11022C8
:102A0000AA711CB1402222710022627118B14022C9
:102A100002710022427143230148338070BD00BF20
:102A200050000020FFF7DABF70B5822106460F483C
:102A300000F05FFB012105460C4800F05AFB8121A4
:102A400004460A4800F055FB0DB11022AA711CB1D2
:102A5000002222710222627118B100220271022248
:102A6000427143230148338070BD00BF50000020F5
:102A700038B5D0F8D432B033044650F823508DB175
:102A800000F0C6FFD4F8D432C5F80C0204EB83047E
:102A9000D5F80402D4F8C43205F50371DB68984711
:102AA000002038BD0320FCE7F8B5D0F8D462D0F898
:102AB000C87200EB86060A46D6F8C05225B301F06C
:102AC0000F0C142404FB0C0463697BB14FF0240E3B
:102AD0000EFB0C77FF69B3FBF7FC07FB1C332BB92C
:102AE00063611A4600F0DCFF0020F8BD0023C5F842
:102AF0001432D6F8C4321B69002BF5D0D5F8080281
:102B000005F504719847EFE70320EEE7D0F8D432DB
:102B1000F7B500EB83030022D3F8C0628DF80520DF
:102B200004460D46ADF80620002E65D091F800C091
:102B30001CF0600229D0202A5AD1CA884F78F2B1FD
:102B40001CF0800F0ED0D3F8C43231469B68384653
:102B50009847EA88072A28BF07223146204600F016
:102B60004EFD09E0402A28BF402286F8007286F810
:102B70000122314600F059FD002003B0F0BDD3F82A
:102B8000C43238469B689847F6E74B780B2B2FD812
:102B900001A252F823F000BFC92B0008792B0008CE
:102BA000F12B0008F12B0008F12B0008F12B000895
:102BB000F12B0008F12B0008F12B0008F12B000885
:102BC000D92B0008E92B000890F89C32032B0FD179
:102BD00002220DF10601C1E790F89C32032B07D1C8
:102BE00001220DF10501B9E790F89C32032BC3D007
:102BF0002946204600F0DCFC0320BEE738B5044639
:102C00000025812100F028FF012184F8375020465B
:102C100000F022FF84F877518221204600F01CFF4B
:102C2000D4F8D43284F84B5004EB83036564D3F8B2
:102C3000C0228AB1D3F8C4325B689847D4F8D43242
:102C4000B03354F8230000F0EBFED4F8D432B033A4
:102C500044F82350C4F8BC52002038BDF8B50446EF
:102C60004FF4077000F0D8FE054630B9D4F8D432DE
:102C7000B03344F82300022046E04FF407720021ED
:102C800001F0FAFCD4F8D432B03344F82350237C5A
:102C9000C4F8BC52CBBB4FF4007381210222204602
:102CA00000F0CEFE012184F837104FF400730222A9
:102CB000204600F0C5FE0126102303226364822112
:102CC000082384F87761204600F0BAFED4F8D432A5
:102CD00084F84B6004EB83030027D3F8C432C5F8B3
:102CE00004721B689847D5F80422C5F81472C5F819
:102CF0001872002ABFD0237C93B94FF40073314679
:102D0000204600F0D6FE0020F8BD4023812102229B
:102D1000204600F095FE012184F837104023C6E7D5
:102D20004023ECE739B1D0F8D43200EB8300C0F88F
:102D3000C4120020704703207047D0F8D432B0335B
:102D400050F823302BB1C3F80812C3F8102200202A
:102D5000704703207047D0F8D432B03350F8233096
:102D60001BB1C3F804120020704703207047D0F84D
:102D7000D432B03310B550F823207AB1D2F81442CF
:102D800001236CB9C2F81432D2F810328362D2F83F
:102D90000822812100F084FE204610BD0320FCE7BC
:102DA0001846FAE7D0F8D422B03208B550F82220FD
:102DB00062B1037CD2F8042233B94FF400730121CD
:102DC00000F077FE002008BD4023F8E70320FAE773
:102DD00078B10023C0F8B832C0F8C432C0F8D0329D
:102DE00009B1C0F8B412012380F89C32027000F0DF
:102DF000CFBD0320704713B500230446ADF806305D
:102E000081B1CB6AC0F8B81223B10DF10600984722
:102E1000C4F8D002D4F8D8320133C4F8D832002034
:102E200002B010BD0320FBE700F001BED0F8B832BD
:102E30000BB11B6818471846704708B5D0F8B83270
:102E40005B689847002818BF032008BD38B50446C2
:102E500000F2AA25284600F0A0FB012394F8AA124C
:102E6000C4F89432B4F8B032C4F8983201F01F03B9
:102E7000012B08D0022B0CD08BB929462046BDE887
:102E8000384000F053B929462046BDE8384000F0EC
:102E9000B1BA29462046BDE8384000F0DABA2046EB
:102EA00001F08001BDE8384000F0DFBD70B5044698
:102EB00039BBD0F89432032B12D1D0F85831B0F886
:102EC000602193420ED9D0F864119B1A11449A42A2
:102ED000C0F85831C0F8641138BF1A4600F0B6FB8C
:102EE000002070BD90F89C32032B06D1D0F8B83288
:102EF0001B6913B1C0F8D4129847204600F0AEFB0E
:102F0000EEE790F89C32032BEAD1D0F8B8329B69F7
:102F1000002BE5D00022BDE87040C0F8D42218474D
:102F200070B504460D4600293FD1D0F89432022BEB
:102F300010D18269038C9A4214D9416AD21A194479
:102F40008261416200F069FB2B462A4629462046F1
:102F500000F0AFFD94F8A03213B1002384F8A03242
:102F6000002070BD0CD143699A4209D8D0F898224C
:102F7000934205D20A4600F050FBC4F89852E3E7AA
:102F800094F89C32032B08D1D4F8B832DB6823B113
:102F90000022C4F8D422204698478021204600F021
:102FA00064FD204600F065FBD4E790F89C32032BCB
:102FB000D6D1D0F8B8325B69002BD1D00022BDE861
:102FC0007040C0F8D4221847F8B5012380F89C322D
:102FD000D0F8B83200210446C0F894124160C0F81D
:102FE000A41280F8A012BBB9002600224025114689
:102FF00001274023204600F023FD84F86371A4F8E4
:1030000060512B4600228021204600F019FD84F8F3
:10301000237025843046F8BD5B68002BE4D09847C8
:103020000028E1D00326E0E701740020704790F803
:103030009C32042B1EBF90F89C32DBB280F89D328C
:10304000042380F89C320020704790F89C32042BB7
:1030500002BF90F89D32DBB280F89C3200207047AE
:1030600008B590F89C22032A05D1D0F8B83213B1E4
:10307000DB6903B19847002008BDD0F8D422AE32F6
:1030800008B550F822204AB190F89C32032B01D1A8
:10309000136A0BB9002008BD9847FBE70320FAE745
:1030A000D0F8D422AE3208B550F822204AB190F8B8
:1030B0009C32032B01D1536A0BB9002008BD9847FD
:1030C000FBE70320FAE700207047012208B580F8EB
:1030D0009C22D0F8B8220AB9002008BD52680179B4
:1030E00090470028F8D00320F7E700207047002021
:1030F000704710B5428803789A4201D8002010BD6D
:103100000478204423444478052C9BB2F4D184787D
:103110008C42F1D1F3E710B58021044600F0A5FC04
:1031200020460021BDE8104000F09FBC73B50B782D
:1031300003F06003202B04460D4609D0402B07D036
:1031400093B12046FFF7E7FF0025284602B070BD87
:10315000D4F8D432AE33294654F823309B68204645
:1031600002B0BDE8704018474B78092BE9D801A29E
:1031700052F823F095330008D93300084331000892
:10318000BD330008433100088F3200089D3100082C
:103190004331000869330008D13200080023ADF83C
:1031A00006304B881A0A013A062ACAD801A151F8FA
:1031B00022F000BFD1310008033200081D320008A0
:1031C00043310008433100086132000877320008BB
:1031D000D0F8B4321B68207C0DF106019847EA88CC
:1031E000002A00F0A480BDF80630002BA9D09A4236
:1031F00028BF1A46ADF806200146204600F0FFF928
:10320000A2E7027CD0F8B83232B99B6A0DF1060011
:10321000984702234370E2E7DB6AF7E7DBB2052B4E
:103220008FD8DFE803F003090D111519D0F8B43277
:103230005B68002BCFD184E7D0F8B4329B68F8E705
:10324000D0F8B432DB68F4E7D0F8B4321B69F0E7A9
:10325000D0F8B4325B69ECE7D0F8B4329B69E8E7A8
:10326000037C002B7FF46DAFD0F8B8320DF106006F
:103270005B6B9847B3E7037C002B7FF462AFD0F819
:10328000B8320DF106001B6B98470723C2E78B8805
:10329000002B7FF456AFCB88002B7FF452AF4D88C4
:1032A0007F2D3FF64EAF90F89C32032B3FF449AF91
:1032B000EDB280F89E52294600F0E9FB204600F06E
:1032C000CDF91DB1022384F89C323DE70123FAE7D2
:1032D0008978474D0129297003D9FFF71CFF032581
:1032E00033E790F89C32022BDEB208D0032E17D0C1
:1032F000FFF711FF29782046FFF79FFDEFE7B1B1F7
:1033000001214160FFF792FD0546204625B1FFF7F8
:1033100002FF84F89C6218E700F0A0F90323D2E7CB
:1033200049B9022380F89C324160FFF786FD2046B0
:1033300000F094F908E741680129F8D0C9B2FFF715
:103340007CFD297861602046FFF770FD0546002866
:10335000EDD02046FFF7DFFE21792046FFF76DFD17
:10336000022384F89C32F0E6CA88012A7FF4E9AE91
:1033700090F89C120229CBB207D8002B3FF4E1AEA3
:103380000146002341F8083F37E7032B7FF4D9AE0D
:10339000011D32E790F89C32013B022B3FF6D1AE83
:1033A000CA88022A7FF4CDAED0F8A4320146002BA1
:1033B0000CBF0123032341F80C3F1EE74B88012B70
:1033C00002D1C4F8A432B2E7022B7FF4BAAE8B88E4
:1033D0001B0A80F8A032AAE790F89C32013B022B2E
:1033E0003FF6AFAE4B88012B7FF4AEAE0023E8E78B
:1033F0006003002070B50B7803F060025B060446A2
:103400000E4601D5402A1FD194F89C32013B022B75
:103410001AD831790129204617D8FFF766FE88B9F6
:10342000D4F8B8329B686BB1C4F8D4023146204658
:1034300098470546F3881BB915B9204600F00EF9E8
:10344000284670BD0325F5E72046FFF764FE0025FA
:10345000F6E770B50B788A880D7903F06003202BAE
:1034600004460E4659D0402B57D01BB12046FFF7DB
:1034700052FE3EE04B78012B3DD0032B26D0002B93
:10348000F4D190F89C32022BD9B262D00329EDD14D
:1034900005F00F0312F0800F4FF0140202FB03033C
:1034A00067D093F82330002BE0D005F07F0601367B
:1034B00006EB8606802D00EB860666D02946204660
:1034C00000F094FA002866D001235FE090F89C3267
:1034D000022BDAB233D0032AC8D14B8833B969063C
:1034E00004D0F38813B9294600F0BFFA204600F053
:1034F000B5F8002070BD90F89C32022BDAB21ED0D5
:10350000032AB3D14B88002BF3D16B0602D0294696
:1035100000F0B4FA204600F0A1F829462046FFF753
:10352000E6FD0028E5D1D4F8B832C4F8D4029B688F
:10353000002BDED031462046BDE8704018476A06B1
:1035400094D0294600F091FA8021204600F08DFAAF
:10355000CFE769068AD113064CBF00F1140100F5CC
:10356000AA71002301F80E3F0222204600F047F81E
:10357000BFE793F86331002B3FF478AF142606FBC6
:10358000050606F5AA76002D98D10023B373022212
:1035900006F10E01E9E7B073F9E70B7803704B7899
:1035A00043704B8843808B888380CB88C38070476F
:1035B00010B58021044600F058FA20460021BDE8ED
:1035C000104000F052BA70B50D461646044670B170
:1035D000FCF710FEC3B201335B0033802B70032372
:1035E0006B70013C0223002114F8012F02B970BD59
:1035F000EA545A1CD2B20233A954DBB2F4E710B534
:1036000013460222C0F8942243610A464162836154
:10361000002100F045FA002010BD08B513460A4607
:10362000002100F03DFA002008BD10B5134603222A
:10363000C0F89422C0F854310A46C0F86411C0F8AA
:103640005831002100F035FA002010BD08B51346AE
:103650000A46002100F02DFA002008BD08B504221A
:103660000023C0F8942219461A4600F019FA0020E7
:1036700008BD08B505220023C0F8942219461A4651
:1036800000F017FA002008BD08B50F490F480022C6
:10369000FFF79EFB08B1FDF76BFA0D490B48FFF7EA
:1036A000AAFB08B1FDF764FA0A490848FFF73AFB9C
:1036B00008B1FDF75DFA0548FFF7B6FB18B1BDE8A4
:1036C0000840FDF755BA08BD200100206403002022
:1036D00094000020D8000020002070470020704790
:1036E0000020704710B50888084CFCF7F5FFFCF780
:1036F000D5FF01462046FFF72EFB2046FFF752FB81
:10370000034B01221A70002010BD00BF640300208B
:103710005003002038B5FCF7C1FF064D06490446AA
:1037200000222846FFF709FB21462846FFF713FB36
:10373000002038BD640300204006002010B5094C6D
:10374000D4F8BC32D3F814320A4643B901462046B5
:10375000FFF7F3FA2046BDE81040FFF708BB012051
:1037600010BD00BF64030020122301480B80704786
:103770000C010020042301480B8070470801002041
:10378000002370B54D1C1E46040FB0F1204F34BF0E
:103790003034373401F8134005F813600133DCB2DC
:1037A000A2424FEA0010EFD870BD00001A2310B5F6
:1037B0000B800A4BD3F8100AD3F8182A80180AD0C5
:1037C000D3F8144A06490822FFF7DAFF0422103121
:1037D0002046FFF7D5FF034810BD00BF0070FF1F54
:1037E000EE000020EC00002010B5044C04480A460E
:1037F0002146FFF7E8FE204610BD00BF400A00202A
:103800008559000810B5044C04480A462146FFF7C4
:10381000DAFE204610BD00BF400A0020985900087B
:1038200010B5044C04480A462146FFF7CCFE20465A
:1038300010BD00BF400A0020AE59000810B5044C6E
:1038400004480A462146FFF7BEFE204610BD00BFD1
:10385000400A0020B959000830B5044689B0142246
:10386000002103A800F008FF2368B3F1A04F2ED178
:10387000184C194800250195236B43F0010323637D
:10388000236B03F0010301934FF4C052019B022309
:10389000CDE9032303210A23CDE9061303A9FDF78C
:1038A000EBFA636B43F0800363630295636C43F44C
:1038B00080436364636C03F48043029343202A468D
:1038C0002946029BFDF784FA4320FDF7B3FA09B0BD
:1038D00030BD00BF003802400000024000F29C41B1
:1038E000D0F8E004FFF7B2BA242303FB0103D0F8B9
:1038F000E004D3F86022FFF7D9BA242303FB0103C5
:10390000D0F8E0041A6AFFF70BBBD0F8E004FFF729
:10391000A7BB10B5C379022B044601D0FDF728F9E7
:10392000D4F8E0040121FFF77FFBD4F8E004BDE800
:103930001040FFF749BB000010B50446D0F8E00482
:10394000FFF775FB2268D2F8003E43F00103C2F88E
:10395000003EE37A23B1034A136943F0060313617F
:1039600010BD00BF00ED00E0D0F8E004FFF76DBB34
:10397000D0F8E004FFF794BBD0F8E004FFF77DBB7C
:10398000D0F8E004FFF79FBBD0F8E004FFF79DBB41
:1039900008B50278034622BB1348C0F8E034C3F8E8
:1039A000C8024FF0A0430360042303714FF4007377
:1039B000C3800223437242810273C281FDF722FB5E
:1039C00008B1FDF7D5F880210748FEF748F84022F6
:1039D00000210548FEF724F8034880220121FEF764
:1039E0001FF8002008BD00BF600E002011F0800FFE
:1039F000D0F8C8324FF024021BBF01F07F0102FB58
:103A0000013302FB0133987D08BF93F856027047DB
:103A1000D0F8C802FDF71CBC00487047400C0020DD
:103A2000704718B102280CBF01200320704708B569
:103A3000D0F8C802FDF755FBBDE80840FFF7F1BF1D
:103A400010B51446D0F8C8021A462346FDF77BFB92
:103A5000BDE81040FFF7E5BF08B5D0F8C802FDF794
:103A6000ABFBBDE80840FFF7DCBF08B5D0F8C802E3
:103A7000FDF711FCBDE80840FFF7D3BF08B5D0F84B
:103A8000C802FDF73FFCBDE80840FFF7CABF08B514
:103A9000D0F8C802FDF744FBBDE80840FFF7C1BFFE
:103AA00008B5D0F8C802FDF7DBFBBDE80840FFF71A
:103AB000B8BF08B5D0F8C802FDF7ACFBBDE80840B8
:103AC000FFF7AFBF242B2DE9F0478646904601D87B
:103AD000012B06D100F088FE162303600020BDE80C
:103AE000F08734480D462A4615F8014B065D16F05E
:103AF0000806F8D12D2C10D12C780126951C33F016
:103B0000100215D1302C0DD12A7802F0DF02582A8C
:103B100008D16C78023510230AE02B2C04BF2C78D6
:103B2000951CECE7002BF6D1302C14BF0A23082398
:103B300006F1004C0CF1FF3C0022BCFBF3F91046EF
:103B400003FB19CAA4F13007092F0FD83C46A34242
:103B50001BDD571C07D0814514D301D1A24511DBD1
:103B600000FB0340012215F8014BEBE7A4F14107EC
:103B7000192F01D8373CEAE7A4F16107192F04D8BF
:103B8000573CE4E74FF0FF32EDE7531C08D1222306
:103B9000CEF800306046B8F1000FA0D0691E06E0F4
:103BA00006B14042B8F1000F99D0002AF6D1C8F80A
:103BB000001094E74D5B000813460A460146024890
:103BC0000068FFF77FBF00BF5001002030B5021F23
:103BD0004C1000EB810000239C4200DC30BD52F809
:103BE000041F50F8045D156001330160F4E740B133
:103BF00003782D2B05D011B12B3B59425941084672
:103C000070470121FBE700000A4B1B6803600A4B69
:103C10001B684360094B1B688360094B1B68C360CA
:103C2000084B1B680361084B1B684361074B1B680B
:103C3000836170475413002050130020400100207E
:103C40003C0100204C1300204813002044130020A6
:103C50000A4B02681A600A4B42681A60094B826874
:103C60001A60094BC2681A60084B02691A60084B57
:103C700042691A60074B82691A607047541300202A
:103C800050130020400100203C0100204C13002074
:103C900048130020441300202DE9F04F85B0DDE9E2
:103CA0000F640D4690469A46019090B189B112B9C1
:103CB000BAF1000F0DD06368019A934209DA55F802
:103CC000230030B1A049FCF78BFA636838B901339F
:103CD00063604FF0FF37384605B0BDE8F08F23B979
:103CE0000122C4E904236260A361B8F1000F15D07A
:103CF00098F800302D2B0ED02B2B0FD14FF002094E
:103D000008F1010898F800303A2B76D108F1010843
:103D10000123009311E04FF00109F1E78B4800F017
:103D200001FEB0F1000918BF4FF001094FEA49093F
:103D3000B8F1000FE6D1CDF8008027696268012F45
:103D400055F822B05BD0636855F823000028C0D036
:103D5000BAF1000F00F006817B49022200F07CFCE2
:103D6000636840B155F82320002E00F0FB801278E4
:103D70002B2A40F0F78055F823002369012B40F0EF
:103D8000F1807149022200F067FC08B90223236127
:103D9000636855F8230023693D21184400F074FC42
:103DA00063680646002873D155F82300FCF722FA11
:103DB000636855F8236023690644C21AD3464FF05E
:103DC000FF370023DBF80010002967D1002FC0F275
:103DD000CB800AEB07135B68012B00F05081022BAC
:103DE00040F0178133783D2B08BF01363378002B24
:103DF00008BF00264FF000088AE1002389E7B9F1E7
:103E0000010F31D0B9F1020F3AD062610023676827
:103E1000A36155F827B0029331465846FFF7E7FEF5
:103E2000029B20B1BBF1000F05D1626051E7013761
:103E300067600133EBE744495846FCF7D1F90028A5
:103E400081D16669A76905EB860539462846FFF7E3
:103E5000BDFE791C2846FFF7B9FE01360121284630
:103E6000FFF7B4FE666034E731465846FFF7BFFE01
:103E700000287FF468AF0132C4E900B2E7602AE7A6
:103E800031465846FFF7B3FE00287FF45CAF20E7C9
:103E900055F823202369821AD21A8FE760680393AA
:103EA00055F8200023690292184400F0D5FBDDE9A3
:103EB0000223002841D1DBF80000CDE90232FCF7F3
:103EC00099F9039A029B90423BD0002F34DBA36800
:103ED000002B2DD01E4E28683368D96800F068FA90
:103EE00033681C48D96800F063FA32686368D168A7
:103EF00055F8230000F05CFA33681748D96800F0E1
:103F000057FA3F0133685AF80700D96800F050FAB1
:103F100033681248D96800F04BFA3368DBF80000C8
:103F2000D96800F045FA33680D48D96800F040FAC6
:103F30003F23E3603F27CEE61F4601330BF1100B12
:103F400040E71F4645E700BFFC590008C759000875
:103F500050010020D7590008E2590008FF59000815
:103F6000085A00084FF0FF37636855F8232023698B
:103F7000B8F1000F45D04046D15C00F085FB80468B
:103F8000002828D1A368C3B16A4E28683368D9686D
:103F900000F00EFA33686848D96800F009FA6368DF
:103FA000316855F823202369C968D05C00F0A8F96E
:103FB00033686248D96800F0FBF92269636801320E
:103FC00055F8231022618A5C002AB1D10133636065
:103FD00001232361ACE743783A2B4ED183783A2B07
:103FE00014BF012102216268236955F82260013360
:103FF0001E44012998F80030E36042D002293FF4C2
:10400000F1AE23696268013355F822202361D35C45
:104010000BB901232361002322692360B9F1000F4A
:104020007DD1012A1AD1C846D4F818B0BBF1000FCF
:1040300078D0666905EB860508F1010959462846DE
:10404000FFF7C4FD01360BEB09012846FFF7BEFD63
:10405000464449462846FFF7B9FD6660002F66DBF7
:104060000E9B03B11F600AEB0717D7E90237002B3D
:104070003FF431AE1F6000272DE60021B3E74FF07B
:10408000000833783D2B08BF01363378002B7FF4CE
:10409000B1AE6368019A0133934235DBA3681BB369
:1040A000244E28683368D96800F082F933682448C0
:1040B000D96800F07DF93368002FD9681DDB2D2009
:1040C00000F01EF93F0133685AF80700D96800F084
:1040D0006FF9009B002B0CBF3F233A23E36033684A
:1040E0001648D96800F064F9636801336360009B87
:1040F000002B3FF41FAF3A27EDE598F8000000F0E1
:10410000FFF898F80030E9E755F823604FF0010810
:10411000012326602361B9F1000F03D184E7012A4E
:104120009CD19846636801334344636096E7E7682F
:10413000D1E500BF500100200C5A0008235A0008A6
:10414000265A000830B58DB005AC05462046FFF76D
:104150005BFD0023CDE9003302942846FFF79CFD68
:1041600001462046FFF774FD08460DB030BD000043
:10417000002310B50446C0E90033C0E9043383606E
:1041800081814366C2818361194608225C3000F058
:1041900073FA0D4B63620D4BA3620D4BE3620D4B43
:1041A00023630D4B24629C4206D003F168029442C3
:1041B00002D0D0339C4205D104F15800BDE8104034
:1041C00000F03CBB10BD00BFA9440008CB44000870
:1041D000034500082745000858130020024A0349F8
:1041E000034800F0EDB800BF44010020F151000881
:1041F0005401002041680C4B994210B5044601D08F
:1042000000F0F6FFA168094B994202D0204600F069
:10421000EFFFE168064B994204D02046BDE810400C
:1042200000F0E6BF10BD00BF58130020C0130020EF
:104230002814002010B50B4B0B4C0C4A1A6020467A
:1042400000220421FFF794FF04F1680001220921F4
:10425000FFF78EFF04F1D0000222BDE810401221CA
:10426000FFF786BF9014002058130020DD4100089E
:10427000014800F0E4BA00BF9A140020014800F0A1
:10428000DFBA00BF9A14002010B50446FFF7F0FF14
:10429000236A1BB1BDE81040FFF7F0BF044B236257
:1042A000044B1B68002BF5D1FFF7C4FFF2E700BFFA
:1042B000F54100089014002070B50E4614460546DE
:1042C00018B1036A0BB9FFF7DFFF636ED80705D497
:1042D000A389990502D4A06D00F0B1FA22462846C0
:1042E000314600F08BF8636EDA07054605D4A389E2
:1042F0009B0502D4A06D00F0A3FA284670BD000013
:10430000024B0A4601461868FFF7D6BF500100204D
:1043100070B50D461446064618B1036A0BB9FFF78F
:10432000B3FF636ED90705D4A3899A0502D4A06DA3
:1043300000F085FAA3891B0701D5236973BB2146C9
:10434000304600F033F948B3636EDA0702D4A3892C
:104350009B0529D54FF0FF3018E0A368013B002BE7
:10436000A36004DAA269934211DB0A290FD0236803
:104370005A1C2260197015F8011F0029EDD1636ED7
:10438000D80702D4A38999050AD5002070BD22461A
:10439000304600F0CCF80130EDD1D5E7013DEAE739
:1043A000A06D00F04DFAF0E7A06D00F049FAD1E7FA
:1043B000024B0A4601461868FFF7AABF50010020C9
:1043C0002DE9F8430746884614460026D4E90195AE
:1043D000B9F1010905D52468002CF7D13046BDE8B4
:1043E000F883AB89012B07D9B5F90E30013303D01F
:1043F00029463846C04706436835E9E770B50D469B
:104400001446064618B1036A0BB9FFF73DFF636E09
:10441000D80705D4A389990502D4A06D00F00FFA3E
:10442000A368013B002BA36005DAA269934212DB6B
:10443000EBB20A2B0FD023685A1C22601D70EDB21C
:10444000636EDA0705D4A3899B0502D4A06D00F042
:10445000F7F9284670BD29462246304600F067F835
:104460000546EDE70EB410B59DB01FAB0290069067
:104470006FF000410A48079104910A4953F8042B50
:104480000591002402A9006801931B9400F0A4FB8D
:10449000029B1C701DB0BDE8104003B0704700BF08
:1044A000500100200802FFFF10B50C46B1F90E10B4
:1044B00000F076F90028ABBF636DA3891B1823F4C5
:1044C0008053ACBF6365A38110BD2DE9F0411F4649
:1044D0008B89DB0505460C46164605D5B1F90E104D
:1044E0000223002200F04AF9A389B4F90E1023F444
:1044F0008053A38132463B462846BDE8F04100F098
:1045000061B910B50C46B1F90E1000F037F9431C33
:10451000A38915BF606523F4805343F48053A381BE
:1045200018BFA38110BDB1F90E1000F017B9F8B58E
:104530000E461446054618B1036A0BB9FFF7A4FEF0
:10454000A369A360A3891A0701D5236943B921464A
:10455000284600F02BF818B14FF0FF373846F8BD69
:1045600023682269981A6369F6B28342374605DCEC
:104570002146284600F03CFE0028EDD1A368013B0F
:10458000A36023685A1C22601E706269431C9A4211
:1045900004D0A389DB07E1D50A2EDFD121462846C6
:1045A00000F026FE0028D9D0D6E7000038B5294B08
:1045B000054618680C4618B1036A0BB9FFF764FE8C
:1045C000B4F90C30190722D4DA0607D409222A607C
:1045D00043F04003A3814FF0FF3033E0580712D57A
:1045E000616B41B104F14403994202D0284600F0C6
:1045F0004FF900236363A38923F02403A3810023DD
:10460000636023692360A38943F00803A3812369BE
:104610004BB9A38903F42073B3F5007F03D021467F
:10462000284600F045FEB4F90C3013F001020AD020
:104630000022A26062695242A261226942B913F06B
:104640008000C5D138BD990758BF6269A260F4E700
:104650000020F7E75001002010B5013902449042D4
:1046600001D1002005E0037811F8014FA34201D0E9
:10467000181B10BD0130F2E702440346934200D1FB
:10468000704703F8011BF9E7C9B20346184613F84F
:10469000012B12B18A42F9D17047002918BF0020BE
:1046A00070470000164B2DE9F0411F687C6C0546F1
:1046B0000E46ECB9502000F07DF90246786420B92E
:1046C000104B11485B2100F0C5F8C0E90044C0E977
:1046D0000244C0E90444C0E90A44C0E90C44C0E90A
:1046E0000E44C0E91044C0E9124484610477446276
:1046F0007A6C314628460123BDE8F04100F006B847
:1047000050010020485A00085F5A0008F0B50446DE
:1047100008B9146844B1204614F8015B0F4617F835
:10472000016B1EB965B91560002005E0B542F6D1F0
:10473000002BF0D114600370F0BD1C460CE01DB9D5
:10474000274614F8013B0E4616F8015BAB42F6D142
:10475000002BF2D000233B701460EDE738B5064D16
:104760000023044608462B60FCF75CFA431C02D188
:104770002B6803B1236038BD9414002038B5074D71
:1047800004460846114600222A601A46FCF754FAED
:10479000431C02D12B6803B1236038BD9414002060
:1047A00038B5074D04460846114600222A601A46CD
:1047B000FCF71CFA431C02D12B6803B1236038BDFF
:1047C0009414002038B5074D0446084611460022CF
:1047D0002A601A46FCF718FA431C02D12B6803B171
:1047E000236038BD94140020014B1868704700BF47
:1047F0005001002070B50D4D0D4C641BA410002617
:10480000A64209D10B4D0C4C00F0CAFF641BA4104A
:104810000026A64205D170BD55F8043B98470136E5
:10482000EEE755F8043B98470136F2E7585C00087C
:10483000585C0008585C00085C5C000870477047D2
:104840007047034611F8012B03F8012B002AF9D118
:10485000704700001FB514461A46094B1B680546F1
:10486000D8684CB1074B0091CDE9013406492B467D
:1048700000F0E6FC00F0C4FD044B1C46F3E700BF6B
:1048800050010020B95A0008C65A0008255A0008ED
:1048900038B50546002941D051F8043C0C1F002BC7
:1048A000B8BFE41800F030F91D4A136833B96360EB
:1048B00014602846BDE8384000F02CB9A34208D95E
:1048C000206821188B4201BF19685B6809182160B4
:1048D000EDE71A465B680BB1A342FAD9116850188C
:1048E000A0420BD120680144501883421160E0D1EE
:1048F00018685B68536008441060DAE702D90C233B
:104900002B60D6E7206821188B4204BF19685B68CA
:10491000636004BF091821605460CAE738BD00BF56
:10492000A014002007B5044B014601AA186800F046
:1049300005F803B05DF804FB500100202DE9F84FA5
:10494000DFF86CA006468946174600F061FDDAF8EC
:10495000004034B14B46984613F8012B3AB13D2A3A
:10496000F9D1304600F05AFD0020BDE8F88FA8EBE1
:104970000908A34654F8040B0028F2D042464946E1
:1049800000F0ECFC0028F4D154F8043C03EB0805DB
:1049900013F808303D2BECD1DAF80030ABEB030311
:1049A0009B1030463B6000F039FD681CDDE700BF1E
:1049B00040000020024B0146186800F025B800BFF7
:1049C0005001002070B50F4E0C463168054611B9F4
:1049D00000F0F8FC30602146284600F0F3FC431C50
:1049E00003D14FF0FF34204670BDC41C24F00304F3
:1049F000A042F8D0211A284600F0E4FC0130F2D1A0
:104A0000EFE700BF9C1400202DE9F843CD1C25F0F2
:104A1000030508350C2D38BF0C25002D064601DB9B
:104A2000A94204D90C2333600020BDE8F883DFF8E5
:104A3000D48000F069F8D8F800301C4644BB294601
:104A40003046FFF7BFFF431C044658D1D8F800405A
:104A50002746002F43D1002C4BD0236839463046DF
:104A600004EB030900F0AEFC814542D121686D1AC8
:104A700029463046FFF7A6FF01303AD023682B4481
:104A80002360D8F800305A6862BBC8F800700FE0A5
:104A90002268521B20D40B2A17D96119A342256022
:104AA00018BF5960636808BFC8F8001062514B60B6
:104AB000304600F02FF804F10B00231D20F0070012
:104AC000C21A1CBF1B1AA350AFE76268A3420CBFF7
:104AD000C8F800205A60EBE723466468AEE73C461E
:104AE0007F68B6E71A465B68A342FBD10023536098
:104AF000DEE70C233360304600F00CF894E70560E5
:104B0000D6E700BFA01400200148FFF798BE00BF01
:104B1000991400200148FFF793BE00BF99140020AC
:104B20002DE9F0478E681F46BE420B6882460C4650
:104B300090462DD8B1F90C2012F4906F26D06569FB
:104B4000096905EB4505A3EB010905EBD5757B1C50
:104B50004B446D109D4238BF1D46530527D529464D
:104B6000FFF752FF064660B321694A4600F03AFC5F
:104B7000A38923F4906343F08003A38126616561D8
:104B80004E44A5EB09052660A5603E46BE4200D90D
:104B90003E4620683246414600F0C6FBA3689B1B98
:104BA000A3602368334423600020BDE8F0872A46D1
:104BB00000F03AFC06460028E0D121695046FFF794
:104BC00067FE0C23CAF80030A38943F04003A38199
:104BD0004FF0FF30E9E700002DE9F04F98468B8950
:104BE0001B069DB007460D46144610D50B6973B9D8
:104BF0004021FFF709FF2860286130B90C233B6092
:104C00004FF0FF301DB0BDE8F08F40236B610023F3
:104C1000099320238DF82930CDF80C803023DFF85C
:104C20009C818DF82A304FF0010923469A4613F8EB
:104C3000012B0AB1252AF9D1BAEB040B0BD05B4644
:104C4000224629463846FFF76BFF013000F0A78067
:104C5000099A5A4409929AF80030002B00F09F807C
:104C600000234FF0FF32CDE905230AF1010A049336
:104C700007938DF853301A935446052214F8011BFC
:104C80004E48FBF7C5FA049AD8B9D00644BF202392
:104C90008DF85330110744BF2B238DF853309AF809
:104CA00000302A2B15D0079A544600204FF00A0CEA
:104CB000214611F8013B303B092B4BD9B0B107928B
:104CC00014E0A0EB080309FA03F313430493A2468C
:104CD000D2E7039B191D1B680391002BBBBF5B42EE
:104CE00042F0020207930793B8BF049223782E2B59
:104CF0000AD163782A2B32D1039B1A1D1B680392B9
:104D000043EAE37302340593DFF8C0A0217803225D
:104D10005046FBF77DFA38B1049BA0EB0A00402215
:104D2000824013430134049314F8011B24488DF886
:104D300028100622FBF76CFA002836D0214B1BBB4B
:104D4000039B073323F0070308330393099B334482
:104D500009936AE70CFB02320C460120A8E7002306
:104D60000134059319464FF00A0C204610F8012B28
:104D7000303A092A03D9002BC6D00591C4E70CFBB1
:104D8000012104460123F0E703AB00932A460E4BB2
:104D900004A93846AFF30080421C0646D6D1AB8941
:104DA0005B063FF52DAF09982CE703AB00932A462D
:104DB000054B04A9384600F079F8EDE7F55A0008EC
:104DC000FF5A000800000000214B0008FB5A0008B1
:104DD0002DE9F047164698468A680B69DDF8209061
:104DE0009342B8BF1346336091F8432007460C4600
:104DF0000AB1013333602368990642BF3368023336
:104E00003360256815F0060506D104F1190AE36838
:104E100032689B1AAB4226DC94F843302268003B90
:104E200018BF012392062BD404F1430241463846B1
:104E3000C84701301ED02368226903F00603042B03
:104E400002BFE5683368ED1AA3680CBF25EAE57573
:104E500000259342C4BF9B1AED1800261A34B542B0
:104E60001AD1002008E00123524641463846C8477F
:104E7000013003D14FF0FF30BDE8F0870135C6E7C0
:104E8000E1185A1C302081F84300224494F8451060
:104E900082F843100233C7E70123224641463846D1
:104EA000C8470130E6D00136D9E700002DE9FF47B9
:104EB0000F7E0C9E782F914680460C469A4601F153
:104EC000430207D8622F0AD8002F00F0D180582F54
:104ED00000F0B88004F1420684F842703AE0A7F18D
:104EE0006303152BF6D801A151F823F0454F0008B4
:104EF000594F0008D54E0008D54E0008D54E000881
:104F0000D54E0008594F0008D54E0008D54E000870
:104F1000D54E0008D54E000857500008834F0008B2
:104F200011500008D54E0008D54E000879500008F1
:104F3000D54E0008834F0008D54E0008D54E000816
:104F40001950000833681A1D1B68326004F14206CC
:104F500084F8423001239CE033682068191D3160D9
:104F6000060601D51D6803E04506FBD5B3F90050E0
:104F7000002D03DA2D236D4284F8433058480A236C
:104F800011E021683368080653F8045B02D449062F
:104F900048BFADB26F2F5248336014BF0A230823B5
:104FA000002184F843106668A660002E05DB2168A6
:104FB0002E4321F0040121604BD01646B5FBF3F1DE
:104FC00003FB1157C75D06F8017D2F46BB420D4616
:104FD000F4D9082B0BD12368DF0708D52369616852
:104FE0009942DEBF302306F8013C06F1FF36921BE2
:104FF0002261CDF800A04B4603AA21464046FFF7A8
:10500000E7FE01304AD14FF0FF3004B0BDE8F08731
:10501000236843F0200323603248782784F84570E2
:10502000236831681F0651F8045B02D45F0648BF4D
:10503000ADB23160D90744BF43F0200323601DB1F6
:105040001023ADE72648E9E7236823F02003236017
:10505000F6E71646BDE7336825686169181D3060BC
:105060002E061B6801D5196002E06806FBD5198081
:10507000002323611646BCE733681A1D32601E68A0
:10508000626800213046FBF7C3F808B1801B6060FE
:1050900063682361002384F84330AAE7236932461A
:1050A00049464046D0470130ADD023689B0713D412
:1050B000E068039B9842B8BF1846A6E70123324632
:1050C00049464046D04701309DD00135E3680399F9
:1050D0005B1AAB42F2DCEBE7002504F11906F5E7B9
:1050E000065B0008175B0008B1F90C202DE9F041C0
:1050F000160705460C4654D44B68002B02DC0B6C9B
:10510000002B48DDE66A002E45D0002312F48052C1
:105110002F68216A2B6030D0626DA389590705D5AD
:105120006368D21A636B0BB1236CD21A0023E66A50
:10513000216A2846B047431CA38906D129681D2946
:105140002BD82A4ACA40D60727D500226260D90444
:105150002269226004D5421C01D12B6803B9606525
:10516000616B2F60B9B104F14403994202D0284623
:10517000FFF78EFB002363630DE001232846B04751
:105180000246501CC9D12B68002BC6D01D2B01D064
:10519000162B1ED12F60002022E043F040031BB2EB
:1051A0001BE00F69002FF6D093070E6808BF4B690C
:1051B0000F6018BF0023A6EB07088B60B8F1000F43
:1051C000E9DD216AA66A43463A462846B0470028E8
:1051D00008DCB4F90C3043F04003A3814FF0FF30FA
:1051E000BDE8F0810744A8EB0008E7E70100402094
:1051F00038B50B6905460C4613B90025284638BD5D
:1052000018B1036A0BB9FFF73FF8B4F90C30002B63
:10521000F3D0626ED00704D4990502D4A06DFFF7D5
:105220000EFB28462146FFF75FFF636EDA0705464F
:10523000E4D4A3899B05E1D4A06DFFF701FBDDE772
:105240000EB403B5014603AB054853F8042B0068C0
:10525000019300F041F902B05DF804EB03B0704730
:105260005001002070B50C46B1F90E10002996B01F
:1052700015461E460DDAA38913F0800F4FF000018A
:1052800014BF40234FF48063002031602B6016B0C0
:1052900070BD6A4600F074F80028ECDB019901F457
:1052A0007041A1F50053594259414FF48063EBE737
:1052B0008B89F7B59D0706460C4607D504F14703D1
:1052C000236023610123636103B0F0BD01AB6A4633
:1052D000FFF7C8FF009F054639463046FFF794FBAD
:1052E00048B9B4F90C309A05EED423F0030343F027
:1052F0000203A381E2E7A389206043F08003A38136
:10530000019BC4E904075BB1B4F90E10304600F00C
:1053100049F828B1A38923F0030343F00103A381D3
:10532000A3891D43A581CFE7884210B501EB020494
:1053300002D98442234607D8431EA14208D011F85F
:10534000012B03F8012FF8E7024401468A4200D1FD
:1053500010BD13F8014D02F8014DF7E710B56AB121
:105360000139841810F8012B11F8013F9A4203D13A
:10537000A04201D0002AF5D1D01A10BD1046FCE79A
:1053800038B5074D00230446084611462B60FBF74D
:105390004CFC431C02D12B6803B1236038BD00BF15
:1053A0009414002038B5064D0023044608462B60AF
:1053B000FBF740FC431C02D12B6803B1236038BDCE
:1053C0009414002038B5064D0023044608462B608F
:1053D000FBF734FC431C02D12B6803B1236038BDBA
:1053E000941400200A44914200F1FF3300D1704729
:1053F00010B511F8014B03F8014F9142F9D110BDDE
:1054000008B5062000F0A8F90120FBF7E9FB000031
:105410000148FFF714BA00BF981400200148FFF7B5
:105420000FBA00BF981400202DE9F041074614463A
:105430000D4621B9BDE8F0411146FFF7E5BA2AB99A
:10544000FFF726FA25462846BDE8F08100F0A0F9CE
:105450008442064602D8B4EB500FF4D821463846B1
:10546000FFF7D2FA804608B94546ECE7B442224637
:10547000294628BF3246FFF7B5FF29463846FFF7D1
:1054800007FAF1E79368013B002B10B4936008DA48
:105490009469A34201DB0A2903D15DF8044BFFF7AD
:1054A00046B81368581C1060197008465DF8044B24
:1054B0007047F8B506460F461446D518AC4201D1E0
:1054C000002007E014F8011B3A463046FFF7DAFFE8
:1054D000431CF3D1F8BD00002DE9F04F0D469DB0FF
:1054E00014469846064618B1036A0BB9FEF7CCFE7F
:1054F0006B6ED90705D4AB899A0502D4A86DFFF766
:105500009EF9AB891B0701D52B699BB9294630460B
:10551000FFF74CF870B16B6EDC0704D54FF0FF302D
:105520001DB0BDE8F08FAB899805F7D4A86DFFF7E3
:1055300087F9F3E70023099320238DF82930CDF86C
:105540000C803023DFF8AC818DF82A304FF0010950
:1055500023469A4613F8012B0AB1252AF9D1BAEB52
:10556000040B0BD05B46224629463046FFF7A1FFCD
:10557000013000F0A780099A5A4409929AF8003045
:10558000002B00F09F8000234FF0FF32CDE9052370
:105590000AF1010A049307938DF853301A93544685
:1055A000052214F8011B5348FAF732FE049AD8B9C1
:1055B000D10644BF20238DF85330130744BF2B235B
:1055C0008DF853309AF800302A2B15D0079A54469C
:1055D00000204FF00A0C214611F8013B303B092B0B
:1055E0004BD9B0B1079214E0A0EB080309FA03F31A
:1055F00013430493A246D2E7039B191D1B68039132
:10560000002BBBBF5B4242F0020207930793B8BF77
:10561000049223782E2B0AD163782A2B32D1039B54
:105620001A1D1B68039243EAE37302340593DFF803
:10563000D4A0217803225046FAF7EAFD38B1049B42
:10564000A0EB0A004022824013430134049314F873
:10565000011B29488DF828100622FAF7D9FD0028E9
:105660003FD0264B1BBB039B073323F007030833B4
:105670000393099B3B4409936AE70CFB02320C46F7
:105680000120A8E700230134059319464FF00A0CC6
:10569000204610F8012B303A092A03D9002BC6D036
:1056A0000591C4E70CFB012104460123F0E703AB9D
:1056B00000932A46124B04A93046AFF300800746F8
:1056C000781CD6D16B6ED90705D4AB899A0502D464
:1056D000A86DFFF7B5F8AB895B063FF51FAF0998DA
:1056E0001EE703AB00932A46054B04A93046FFF79B
:1056F000DDFBE4E7F55A0008FF5A0008000000004F
:10570000B3540008FB5A00081F2938B505460C465B
:1057100004D9162303604FF0FF3038BDC26B12B1BD
:1057200052F821304BB9284600F030F822460146A5
:105730002846BDE8384000F017B8012B0AD0591CA4
:1057400003D1162303600120E7E7002142F824106B
:10575000204698470020E0E7024B01461868FFF713
:10576000D3BF00BF5001002038B5074D00230446C9
:10577000084611462B60FBF72BFA431C02D12B681D
:1057800003B1236038BD00BF94140020FBF71EBA9C
:1057900051F8043C181F002BBCBF0B58C0187047B1
:1057A000F8B500BFF8BC08BC9E467047F8B500BF0E
:0857B000F8BC08BC9E467047DE
:1057B8004572726F723A20756E7265636F676E69B3
:1057C8007A656420636F6D6D616E640A0077726537
:1057D80064613A763A004572726F723A20756E7259
:1057E80065636F676E697A656420617267206F729E
:1057F8002076616C75650A004572726F723A206393
:105808006F6D6D616E642065787065637465640A98
:10581800004572726F723A20616C6C6F7765642014
:10582800746F20757365206F6E6C79206F6E6520BC
:10583800636F6D6D616E6420666C61670A00457206
:10584800726F723A20777269746520636F6D6D614B
:105858006E64206578706563742061646472657332
:105868007320616E642076616C75650A00457272FA
:105878006F723A207265616420636F6D6D616E644A
:105888002065787065637420616464726573732041
:10589800616E6420646F6E27742065787065637428
:1058A8002076616C75650A004572726F723A204401
:1058B800756D7020636F6D6D616E6420646F6E2707
:1058C80074206578706563742076616C7565206FE7
:1058D8007220616464726573730A005265616420A2
:1058E80063656C6C2E20416464726573733A20257D
:1058F800750A0056616C75653A2025750A00416481
:1059080064657373206D757374206D6520626574AA
:1059180077656E203020616E642036330A00536F3D
:105928006D657468696E672077726F6E670A0057D5
:10593800726974652063656C6C2E204164647265BD
:1059480073733A2025753B2076616C75653A20257E
:10595800750A004368616E6765640A004572616391
:10596800652063656C6C2E20416464726573733ABC
:105978002025750A004572617365640A0053544D09
:105988006963726F656C656374726F6E69637300C7
:1059980053544D3332205669727475616C20436FCD
:1059A8006D506F72740043444320436F6E6669679D
:1059B8000043444320496E74657266616365005014
:1059C8004F5349584C595F434F5252454354003A3C
:1059D800206F7074696F6E206000272069732061E2
:1059E8006D626967756F75732028636F756C6420C5
:1059F800626520602D2D0027206F7220602D2D00FC
:105A080027290A003A20696E76616C6964206F70F4
:105A180074696F6E202D2D20602D00270A003A2012
:105A2800617267756D656E742072657175697265EE
:105A38006420666F72206F7074696F6E20602D002D
:105A48005245454E54206D616C6C6F6320737563CD
:105A5800636565646564002F6275696C642F676EA1
:105A6800752D746F6F6C732D666F722D73746D3333
:105A7800325F31332E332E72656C312E3230323430
:105A8800303932362D313731352F7372632F6E65C9
:105A9800776C69622F6E65776C69622F6C696263D7
:105AA8002F737472696E672F737472746F6B2E63C1
:105AB800002C2066756E6374696F6E3A20006173FE
:105AC80073657274696F6E2022257322206661697E
:105AD8006C65643A2066696C6520222573222C2047
